MPLINK 4.04, Linker
Linker Error Map File - Created Thu Sep 02 16:08:51 2010

*Warning* - This is only a partial map file due to a link time error.
   Only sections which were allocated prior to the error are shown below.

CODEPAGES:
    Memory      Start        End              Section    Address Size(Bytes)
 ---------  ---------  ---------            ---------  ---------  ---------
      boot     0x0000     0x07ff                                           

   vectors     0x0800     0x0829                                           

      page     0x082a     0x7fff                                           

    idlocs     0x0000     0x0007                                           

    config     0x0000     0x000d                                           

     devid     0xfffe     0xffff                                           

    eedata     0x0000     0x00ff                                           


SHAREBANKS:

DATABANKS:
    Memory      Start        End              Section    Address Size(Bytes)
 ---------  ---------  ---------            ---------  ---------  ---------
      gpr0     0x0060     0x00ff                                           

      gpr1     0x0100     0x01ff                                           

      gpr2     0x0200     0x02ff                                           

      gpr3     0x0300     0x03ff                                           

      usb4     0x0400     0x04ff                                           

      usb5     0x0500     0x05ff                                           

      usb6     0x0600     0x06ff                                           

      usb7     0x0700     0x07ff                                           


ACCESSBANKS:
    Memory      Start        End              Section    Address Size(Bytes)
 ---------  ---------  ---------            ---------  ---------  ---------
 accessram     0x0000     0x005f                                           

 accesssfr     0x0f60     0x0fff        SFR_UNBANKED0     0x0f62     0x009e


