:020000040000FA
:06000000ACEF04F0120059
:06080000ACEF04F0120051
:02082A000000CC
:04082C002A0EF66E2C
:10083000080EF76E000EF86E00010900F550656FA6
:100840000900F550666F03E1656701D03DD00900EE
:10085000F550606F0900F550616F0900F550626F47
:1008600009000900F550E96E0900F550EA6E09002B
:1008700009000900F550636F0900F550646F090025
:100880000900F6CF67F0F7CF68F0F8CF69F060C0E5
:10089000F6FF61C0F7FF62C0F8FF0001635302E199
:1008A000645307E00900F550EE6E6307F8E2640751
:1008B000F9D767C0F6FF68C0F7FF69C0F8FF00010D
:0A08C0006507000E665BBFD712004B
:0608CA00D9CFE6FFE1CFEB
:1008D000D9FF020EE126DE68DD6A0F0EC112928892
:1008E000936A816A80B802D0DF50811A0CD80BD885
:1008F000F9D7020EE15C02E2E16AE552E16EE552EF
:10090000E7CFD9FF1200E6689CEC04F0E552E668F8
:100910009CEC04F0E552E6689CEC04F0E552E668D5
:100920009CEC04F0E552E6689CEC04F0E552E668C5
:080930009CEC04F0E5521200FA
:08093800FF0EE350026E480EB1
:1009400001D04C0EE76EE72EFED7E76AE72EFED702
:08095000022EF7D7000012008F
:0809580013EE00F023EE00F0A5
:10096000F86A019C16EC04F065EC04F0FDD7120067
:00000001FF
